{
  "_format": "hh-sol-artifact-1",
  "contractName": "SimpleStorage",
  "sourceName": "contracts/SimpleStorage.sol",
  "abi": [
    {
      "inputs": [],
      "stateMutability": "nonpayable",
      "type": "constructor"
    },
    {
      "anonymous": false,
      "inputs": [
        {
          "indexed": false,
          "internalType": "string",
          "name": "newMessage",
          "type": "string"
        }
      ],
      "name": "MessageUpdated",
      "type": "event"
    },
    {
      "anonymous": false,
      "inputs": [
        {
          "indexed": true,
          "internalType": "address",
          "name": "owner",
          "type": "address"
        }
      ],
      "name": "OwnerSet",
      "type": "event"
    },
    {
      "anonymous": false,
      "inputs": [
        {
          "indexed": false,
          "internalType": "uint256",
          "name": "newValue",
          "type": "uint256"
        }
      ],
      "name": "ValueUpdated",
      "type": "event"
    },
    {
      "inputs": [],
      "name": "getMessage",
      "outputs": [
        {
          "internalType": "string",
          "name": "",
          "type": "string"
        }
      ],
      "stateMutability": "view",
      "type": "function"
    },
    {
      "inputs": [],
      "name": "getValue",
      "outputs": [
        {
          "internalType": "uint256",
          "name": "",
          "type": "uint256"
        }
      ],
      "stateMutability": "view",
      "type": "function"
    },
    {
      "inputs": [],
      "name": "owner",
      "outputs": [
        {
          "internalType": "address",
          "name": "",
          "type": "address"
        }
      ],
      "stateMutability": "view",
      "type": "function"
    },
    {
      "inputs": [
        {
          "internalType": "string",
          "name": "_message",
          "type": "string"
        }
      ],
      "name": "setMessage",
      "outputs": [],
      "stateMutability": "nonpayable",
      "type": "function"
    },
    {
      "inputs": [
        {
          "internalType": "uint256",
          "name": "_value",
          "type": "uint256"
        }
      ],
      "name": "setValue",
      "outputs": [],
      "stateMutability": "nonpayable",
      "type": "function"
    }
  ],
  "bytecode": "0x6080604052348015600f57600080fd5b50336000806101000a81548173ffffffffffffffffffffffffffffffffffffffff021916908373ffffffffffffffffffffffffffffffffffffffff16021790555060008054906101000a900473ffffffffffffffffffffffffffffffffffffffff1673ffffffffffffffffffffffffffffffffffffffff167f50146d0e3c60aa1d17a70635b05494f864e86144a2201275021014fbf08bafe260405160405180910390a26109c9806100c26000396000f3fe608060405234801561001057600080fd5b50600436106100575760003560e01c8063209652551461005c578063368b87721461007a57806355241077146100965780638da5cb5b146100b2578063ce6d41de146100d0575b600080fd5b6100646100ee565b6040516100719190610373565b60405180910390f35b610094600480360381019061008f91906103fd565b6100f8565b005b6100b060048036038101906100ab9190610476565b6101d5565b005b6100ba6102a4565b6040516100c791906104e4565b60405180910390f35b6100d86102c8565b6040516100e5919061058f565b60405180910390f35b6000600154905090565b60008054906101000a900473ffffffffffffffffffffffffffffffffffffffff1673ffffffffffffffffffffffffffffffffffffffff163373ffffffffffffffffffffffffffffffffffffffff1614610186576040517f08c379a000000000000000000000000000000000000000000000000000000000815260040161017d906105fd565b60405180910390fd5b818160029182610197929190610863565b507f8fae638bf5c6396194a6bb16601c4035a07fa48191638ff4102f0d96f14cfefb82826040516101c992919061096f565b60405180910390a15050565b60008054906101000a900473ffffffffffffffffffffffffffffffffffffffff1673ffffffffffffffffffffffffffffffffffffffff163373ffffffffffffffffffffffffffffffffffffffff1614610263576040517f08c379a000000000000000000000000000000000000000000000000000000000815260040161025a906105fd565b60405180910390fd5b806001819055507f4273d0736f60e0dedfe745e86718093d8ec8646ebd2a60cd60643eeced565811816040516102999190610373565b60405180910390a150565b60008054906101000a900473ffffffffffffffffffffffffffffffffffffffff1681565b6060600280546102d790610686565b80601f016020809104026020016040519081016040528092919081815260200182805461030390610686565b80156103505780601f1061032557610100808354040283529160200191610350565b820191906000526020600020905b81548152906001019060200180831161033357829003601f168201915b5050505050905090565b6000819050919050565b61036d8161035a565b82525050565b60006020820190506103886000830184610364565b92915050565b600080fd5b600080fd5b600080fd5b600080fd5b600080fd5b60008083601f8401126103bd576103bc610398565b5b8235905067ffffffffffffffff8111156103da576103d961039d565b5b6020830191508360018202830111156103f6576103f56103a2565b5b9250929050565b600080602083850312156104145761041361038e565b5b600083013567ffffffffffffffff81111561043257610431610393565b5b61043e858286016103a7565b92509250509250929050565b6104538161035a565b811461045e57600080fd5b50565b6000813590506104708161044a565b92915050565b60006020828403121561048c5761048b61038e565b5b600061049a84828501610461565b91505092915050565b600073ffffffffffffffffffffffffffffffffffffffff82169050919050565b60006104ce826104a3565b9050919050565b6104de816104c3565b82525050565b60006020820190506104f960008301846104d5565b92915050565b600081519050919050565b600082825260208201905092915050565b60005b8381101561053957808201518184015260208101905061051e565b60008484015250505050565b6000601f19601f8301169050919050565b6000610561826104ff565b61056b818561050a565b935061057b81856020860161051b565b61058481610545565b840191505092915050565b600060208201905081810360008301526105a98184610556565b905092915050565b7f4e6f74206f776e65720000000000000000000000000000000000000000000000600082015250565b60006105e760098361050a565b91506105f2826105b1565b602082019050919050565b60006020820190508181036000830152610616816105da565b9050919050565b600082905092915050565b7f4e487b7100000000000000000000000000000000000000000000000000000000600052604160045260246000fd5b7f4e487b7100000000000000000000000000000000000000000000000000000000600052602260045260246000fd5b6000600282049050600182168061069e57607f821691505b6020821081036106b1576106b0610657565b5b50919050565b60008190508160005260206000209050919050565b60006020601f8301049050919050565b600082821b905092915050565b6000600883026107197fffffffffffffffffffffffffffffffffffffffffffffffffffffffffffffffff826106dc565b61072386836106dc565b95508019841693508086168417925050509392505050565b6000819050919050565b600061076061075b6107568461035a565b61073b565b61035a565b9050919050565b6000819050919050565b61077a83610745565b61078e61078682610767565b8484546106e9565b825550505050565b600090565b6107a3610796565b6107ae818484610771565b505050565b5b818110156107d2576107c760008261079b565b6001810190506107b4565b5050565b601f821115610817576107e8816106b7565b6107f1846106cc565b81016020851015610800578190505b61081461080c856106cc565b8301826107b3565b50505b505050565b600082821c905092915050565b600061083a6000198460080261081c565b1980831691505092915050565b60006108538383610829565b9150826002028217905092915050565b61086d838361061d565b67ffffffffffffffff81111561088657610885610628565b5b6108908254610686565b61089b8282856107d6565b6000601f8311600181146108ca57600084156108b8578287013590505b6108c28582610847565b86555061092a565b601f1984166108d8866106b7565b60005b82811015610900578489013582556001820191506020850194506020810190506108db565b8683101561091d5784890135610919601f891682610829565b8355505b6001600288020188555050505b50505050505050565b82818337600083830152505050565b600061094e838561050a565b935061095b838584610933565b61096483610545565b840190509392505050565b6000602082019050818103600083015261098a818486610942565b9050939250505056fea2646970667358221220fff85a9795213d33025972256b7ab9f7ac5cef4bcd7fd9d58c6329c3d71d9acc64736f6c634300081c0033",
  "linkReferences": {},
  "deployedLinkReferences": {}
}